:100000000C94E8000C9410010C9410010C9403055E
:100010000C9403050C9403050C9410010C9410012E
:100020000C9410010C9410010C9410010C9410010C
:100030000C9410010C9410010C9410010C941001FC
:100040000C94F00C0C9410010C94D1040C94AB049F
:100050000C9410010C9410010C9410010C941001DC
:100060000C947D050C9410016E07650797077607C1
:1000700072073B075F07010700407A10F35A00A0A0
:10008000724E18090010A5D4E80000E87648170061
:1000900000E40B54020000CA9A3B000000E1F505A1
:1000A000000080969800000040420F000000A086EB
:1000B00001000000102700000000E803000000001D
:1000C0006400000000000A000000000001000000C1
:1000D00000002C76D888DC674F0823DFC1DFAE59DB
:1000E000E1B1B796E5E3E453C63AE651997696E86E
:1000F000E6C28426EB898C9B62ED407C6FFCEFBCF2
:100100009C9F40F2BAA56FA5F490055A2AF75C931C
:100110006B6CF9676DC11BFCE0E40D47FEF520E652
:10012000B500D0ED902E0300943577050080841E35
:10013000080000204E0A000000C80C333333330F90
:10014000986E12831141EF8D2114893BE65516CF2D
:10015000FEE6DB18D1844B381BF77C1D901DA4BB39
:10016000E424203284725E228100C9F124ECA1E5EE
:100170003D2700000000240027002A00000000089E
:10018000000201000003040700000000000000005E
:1001900000000000230026002900000000002500C8
:1001A00028002B00040404040404040402020202D4
:1001B000020203030303030301020408102040802A
:1001C000010204081020010204081020F514D914BB
:1001D00011241FBECFEFD8E0DEBFCDBF12E0A0E0FC
:1001E000B1E0EAE4FBE302C005900D92A239B10749
:1001F000D9F725E0A2E9B2E001C01D92AF37B207FE
:10020000E1F710E0C7EED0E004C02197FE010E94A4
:10021000461BC63ED107C9F70E943A0D0C94981DA3
:100220000C940000CF92DF92EF92FF920F931F93F6
:10023000CF93DF936C017A018B01C0E0D0E0CE1543
:10024000DF0581F0D8016D918D01D601ED91FC9112
:100250000190F081E02DC6010995892B11F02196BE
:10026000EECF7E01C701DF91CF911F910F91FF90DB
:10027000EF90DF90CF900895FC01538D448D252F92
:1002800030E0842F90E0821B930B541710F0CF9630
:10029000089501970895FC01918D828D981761F062
:1002A000828DDF01A80FB11D5D968C91928D9F5FAD
:1002B0009F73928F90E008958FEF9FEF0895FC0158
:1002C000918D828D981731F0828DE80FF11D858D0B
:1002D00090E008958FEF9FEF0895FC01918D228D9E
:1002E000892F90E0805C9F4F821B91098F73992723
:1002F000089586E593E00E946D0121E0892B09F4C1
:1003000020E0822F0895FC01848DDF01A80FB11D2C
:10031000A35ABF4F2C91848D90E001968F7399273B
:10032000848FA689B7892C93A089B1898C91837019
:1003300080648C93938D848D981306C00288F38912
:10034000E02D80818F7D80830895EF92FF920F933F
:100350001F93CF93DF93EC0181E0888F9B8D8C8D71
:10036000981305C0E889F989808185FD26C0F62E9D
:100370000B8D10E00F5F1F4F0F731127E02E8C8D38
:10038000E8120CC00FB607FCFACFE889F989808122
:1003900085FFF5CFCE010E948301F1CF8B8DFE0149
:1003A000E80FF11DE35AFF4FF0829FB7F8940B8FCF
:1003B000EA89FB89808180620AC09FB7F894EE8940
:1003C000FF896083E889F9898081837080648083F4
:1003D0009FBF81E090E0DF91CF911F910F91FF903F
:1003E000EF900895CF93DF93EC01888D8823C9F0B7
:1003F000EA89FB89808185FD05C0A889B9898C912E
:1004000086FD0FC00FB607FCF5CF808185FFF2CFC8
:10041000A889B9898C9185FFEDCFCE010E94830117
:10042000E7CFDF91CF91089580E090E0892B29F00C
:100430000E94790181110C9400000895209194028A
:10044000309195022817390771F4909192028091AA
:100450009302981741F0E0919202F0E0E25FFC4FC6
:10046000808190E008958FEF9FEF089508951F9386
:10047000CF93DF93DC015C968D919C915D97009703
:1004800039F421E030E013963C932E9312973BC051
:100490005196ED91FC91529750962C915097322F96
:1004A00030951FB75E964C915E97742F727041FD28
:1004B0006095F8944081772311F0422B01C04323CB
:1004C0004083EC012197F1F748E0508160FF02C0C2
:1004D000522B01C053235083EC012197F1F766950D
:1004E000415099F78081772319F08323808302C0DC
:1004F000282B20831FBF5C968D919C915D9701975F
:10050000F1F781E090E0DF91CF911F910895209164
:100510009402309195022817390771F48091930263
:100520002091920290E0805C9F4F821B910960E4D1
:1005300070E00E94321B089580E090E008952091C1
:1005400094023091950228173907B9F490919202DC
:1005500080919302981789F0E0919202F0E0E25FB7
:10056000FC4F80812091920230E02F5F3F4F2F732C
:1005700033272093920290E008958FEF9FEF089524
:100580008FEF9FEF08958FEF9FEF089580910D03F8
:1005900090E09195819591090895089580E090E00B
:1005A000089585ED8093BC008091BC0084FDFCCF54
:1005B0001092E70208954091C302262F30E0240FE5
:1005C000311D21323105DCF42091E7022430C9F4D9
:1005D000FC0180E090E0861758F43091C30221912D
:1005E000DC01AD55BD4FA30FB11D2C930196F3CF88
:1005F0008091C302680F6093C30280E0089581E098
:10060000089582E00895CF93DF93CB01EA01642F30
:100610000E94DB02CE01DF91CF910895CF93DF934B
:100620001F92CDB7DEB7698361E0CE0101960E94CB
:10063000DB0281E090E00F90DF91CF910895FC0103
:1006400026813781620F731F8481958186179707F2
:1006500038F08281938177836683820F931F089598
:1006600080E090E008950E94471D0F931F93CF9361
:10067000DF93EC0188819981009729F02A813B81E1
:100680002617370788F48B016F5F7F4F0E94811C0C
:10069000009761F0998388831B830A832C813D81B5
:1006A000232B11F4FC01108281E001C080E0DF9176
:1006B000CF911F910F910895FC0180819181009746
:1006C00011F00C94381660E070E0CB010895EF92C1
:1006D000FF920F931F93CF93DF936115710511F470
:1006E00080E01CC041155105C1F07B01EC018C81FB
:1006F0009D818A01080F191FB801CE010E943503A0
:10070000882371F3288139818C819D81B701820F03
:10071000931F0E94691D1D830C8381E0DF91CF919F
:100720001F910F91FF90EF900895EF92FF920F931A
:100730001F93CF93DF93EC01E880F980D7018D916F
:100740009C91FC01048115816115710551F0FB013B
:1007500001900020E9F73197AF01461B570B0E942B
:100760006703D701ED91FC91248135818A819B81BA
:10077000820F931F801B910B9B838A83DF91CF9104
:100780001F910F91FF90EF9008950F931F93CF93B8
:10079000DF93CDB7DEB766970FB6F894DEBF0FBE16
:1007A000CDBF9C01CB011E8AFE0176960AE010E0C7
:1007B000B8010E94321B805D8293CB010097C1F784
:1007C000BF01C9010E94950366960FB6F894DEBF7B
:1007D0000FBECDBFDF91CF911F910F9108950F9361
:1007E0001F93CF93DF9300D0CDB7DEB78C01DC0130
:1007F000ED91FC918081918169831A8241E050E002
:10080000BE016F5F7F4F0E946703F8018281938171
:100810000196938382830F900F90DF91CF911F9168
:100820000F910895FF920F931F93CF93DF9361155C
:10083000710549F46EE672E0DF91CF911F910F913F
:10084000FF900C9495038B01EC0162E2CE010E94B3
:10085000EF03F80161918F01662351F0EFE5F2E0BB
:10086000F080FF2099F38181681759F03296F8CF14
:1008700062E2CE01DF91CF911F910F91FF900C9416
:10088000EF036CE5CE010E94EF036F2DDFCFCF9316
:10089000DF93EC0188819981009711F00E94F81B89
:1008A000198218821D821C821B821A82DF91CF91CD
:1008B0000895EF92FF920F931F93CF93DF93EC0174
:1008C0007B018A01BA010E943503811104C0CE0167
:1008D0000E94470407C01D830C83B701888199815A
:1008E0000E94691DCE01DF91CF911F910F91FF9062
:1008F000EF900895CF93DF93EC016115710559F0E6
:10090000FB0101900020E9F73197AF01461B570B1F
:100910000E94590402C00E944704CE01DF91CF918A
:100920000895FC01808191810C94F81BFC011182D7
:10093000108213821282158214826115710551F0A2
:10094000FB0101900020E9F73197AF01461B570BDF
:100950000C94590408951F920F920FB60F92112410
:100960002F933F934F935F936F937F938F939F93B7
:10097000AF93BF93EF93FF9386E593E00E948301CB
:10098000FF91EF91BF91AF919F918F917F916F9167
:100990005F914F913F912F910F900FBE0F901F903D
:1009A00018951F920F920FB60F9211242F938F93C9
:1009B0009F93EF93FF93E0916603F091670380812B
:1009C000E0916C03F0916D0382FD12C090818091E3
:1009D0006F038F5F8F7320917003821751F0E09146
:1009E0006F03F0E0EA5AFC4F958F80936F0301C0CC
:1009F0008081FF91EF919F918F912F910F900FBE6A
:100A00000F901F9018951F920F920FB60F921124FE
:100A10002F933F934F935F936F937F938F939F9306
:100A2000AF93BF93EF93FF93E0919402F0919502FF
:100A3000309709F451C0968DA685B785858591FFBD
:100A400004C09C91892329F447C09C91892309F013
:100A500043C0A389B4899C918589809589238C930F
:100A6000868997890197F1F7608D718DA685B78585
:100A7000558538E020E0CB010197F1F7822F90E017
:100A800095958795282F4C91452309F02068315082
:100A900091F7868D81FD20958091930290E00196DB
:100AA0008F73992730919202381749F0A0919302E1
:100AB000B0E0A25FBC4F2C938093930203C0868D5D
:100AC0008160868F828D938D0197F1F7A389B48918
:100AD0009C918589892B8C93FF91EF91BF91AF9168
:100AE0009F918F917F916F915F914F913F912F9146
:100AF0000F900FBE0F901F9018951F920F920FB678
:100B00000F9211242F933F934F935F936F937F9393
:100B10008F939F93AF93BF93EF93FF938091B9000F
:100B2000887F803609F49CC068F5883209F45BC080
:100B300090F4803109F454C038F4882309F4F2C0E9
:100B4000883009F44DC0F2C0883109F44CC08032BD
:100B500009F45DC0EBC0803409F468C048F4803308
:100B600009F455C0883309F0E1C08093E602D4C08F
:100B7000803509F44FC0883509F45DC0883409F028
:100B8000D5C0D2C0883909F4C3C0A8F4883709F4A5
:100B900067C038F4883609F463C0803709F460C050
:100BA000C5C0883809F4B4C0803909F45FC0803802
:100BB00009F0BCC05BC0803B09F484C038F4803AC3
:100BC00009F466C0883A09F47DC0B0C0803C09F4DD
:100BD000A3C0883C09F4A0C0883B09F486C0A6C025
:100BE00080910C0310C090910B0380910A03981719
:100BF00070F5E0910B0381E08E0F80930B03F0E022
:100C0000E651FD4F80818093BB0085EC82C08093CC
:100C1000E6028AC0E0910B0381E08E0F80930B0304
:100C20008091BB00F0E0E651FD4F808390910B0373
:100C300080910A036AC0E0910B0381E08E0F8093DC
:100C40000B038091BB00F0E0E651FD4F8083809163
:100C5000E902811169C081E08093E80284EA5DC005
:100C600083E08093E7021092E502CFCF8091E50206
:100C7000803208F04DC0E091E50281E08E0F809354
:100C8000E5028091BB00F0E0EB53FD4F8083BDCFC8
:100C900085EC8093BC001092E7028091E5028032DF
:100CA00030F4E091E502F0E0EB53FD4F10826091EB
:100CB000E50270E085EC92E0E0E0F0E0099510924A
:100CC000E50234C084E08093E7021092C4021092DF
:100CD000C302E0E0F0E009958091C302811105C0F4
:100CE00081E08093C3021092A302E091C40281E0EC
:100CF0008E0F8093C402F0E0ED55FD4F808180930C
:100D0000BB009091C4028091C302981708F47DCF74
:100D100085E88093BC000AC085EC8093BC001092EB
:100D2000E70204C01092E6020E94D102FF91EF9107
:100D3000BF91AF919F918F917F916F915F914F91F3
:100D40003F912F910F900FBE0F901F9018950F930A
:100D50001F93CF93DF938C01EB016BE7CE010E94D1
:100D6000EF03F8010281138101151105D1F0F8019B
:100D700062817381CE010E9412046AE3CE010E9457
:100D8000EF03BE01C80104960E94D906F801008154
:100D900011810115110529F06CE2CE010E94EF03CB
:100DA000E3CF6DE7CE01DF91CF911F910F910C94AE
:100DB000EF032F923F924F925F926F927F928F92AA
:100DC0009F92AF92BF92CF92DF92EF92FF920F93DA
:100DD0001F93CF93DF93CDB7DEB76C970FB6F89420
:100DE000DEBF0FBECDBFDC01ED91FC913197E83045
:100DF000F10508F038C21B018C01EC5CFF4F0C942C
:100E0000461BFC0182809380A480B580A5019401DB
:100E1000C501B4010E94DB18882319F06EE772E067
:100E200094C020E030E0A901C501B4010E94DB18A4
:100E300087FF08C06DE2C1010E94EF03B7FAB094CA
:100E4000B7F8B09420E030E0A901C501B4010E94D8
:100E5000DB18882309F47DC0A5019401C501B40104
:100E60000E94921AA50194010E94DB18811171C0A1
:100E700065E872E06AC0DC0112960D911C9113972F
:100E80006BE5C1010E94EF03F80102811381011596
:100E9000110581F0B101C80102960E94D906D8015E
:100EA0000D911C910115110529F06CE2C1010E9400
:100EB000EF03EDCF6DE5C1010E94EF03D4C1FC014A
:100EC000828193810E94A706CEC1DC0112966D91AA
:100ED0007C911397C1010E941204C5C1FC0162817B
:100EE000738133C06DE2C1010E94EF03D8011296F5
:100EF0006D917D918D919C9115971E8A8E010A5E50
:100F00001F4F2AE0C22ED12CE12CF12CA701960113
:100F10000E94601A605DF80162938F01B901CA01F5
:100F2000611571058105910589F7BF010EC0FC01AE
:100F300082819381A481B581892B8A2B8B2B19F413
:100F400068E772E002C063E772E0C1010E949503A6
:100F50008AC120E836E948E15BE4C501B4010E949A
:100F60002D1B87FF4AC100E210E0E5E0DE2E188E5F
:100F70001F8A20E030E0A901C501B4010E942D1BA9
:100F80001816B4F52CEA35EC47E257E3C501B40175
:100F90000E94DB18181664F1BFEFDB1649F1ED2D46
:100FA000F4E0EF0270011124F701EA5FFE4FA501A2
:100FB000940160817181828193810E942D1B18169A
:100FC0009CF4F701EA5CFE4F20813181428153811C
:100FD000C501B4010E9441194B015C018F89988DB4
:100FE000801B910B988F8F8B15950795DA94D4CF32
:100FF000C501B4010E94FE1A6B017C012B013C016A
:1010000006E080E492E4AFE0B0E0898F9A8FAB8F86
:10101000BC8F102F01509AE04916510461047104ED
:10102000C8F0698D7A8D8B8D9C8D2AE030E040E090
:1010300050E00E94601A298F3A8F4B8F5C8FC3015A
:10104000B2012AE030E040E050E00E94601A29013D
:101050003A01DFCFC701B6010E94E0189B01AC0145
:10106000C501B4010E94911A4B015C01698D7A8D12
:101070008B8D9C8D0E94E0189B01AC01C501B401D1
:101080000E9441192B013C010E94FE1A4B015C0198
:101090000E94E0189B01AC01C301B2010E94911AA9
:1010A0009B01AC010E94921A0E94FE1A860E971EA6
:1010B000A81EB91E898D9A8DAB8DBC8D8816990698
:1010C000AA06BB06F8F09FEFC91AD90AE90AF90A7D
:1010D000AF89B88DAB2B99F0BAE0CB16D104E104FF
:1010E000F10468F0EF89F88D3196F88FEF8B812C41
:1010F000912C5401C12CD12C7601C39403C0812CB6
:10110000912C54015AE0452E512C612C712CC501B3
:10111000B401A30192010E94601A672B682B692B0E
:1011200031F4111624F449015A011150F0CF1E8AEE
:10113000CE0146969A8F898F4AE0442E512C612C1D
:10114000712CC701B601A30192010E94601A605D73
:10115000A98DBA8D6E93BA8FA98F69017A01C114D6
:10116000D104E104F10469F7BD01C1010E949503B6
:10117000112329F1188A012F6E01B0E1CB0ED11C89
:1011800076013AE0432E512C612C712C015068F00D
:10119000C501B401A30192010E94601A605DF601CD
:1011A00062936F0149015A01F1CFB701611B7109C7
:1011B0008EE2DB018E93BD01C1010E949503EF8990
:1011C000F88DF7FF0BC062E872E0C1010E94950341
:1011D0006F89788D7195619571090BC08F89988D94
:1011E000892B09F440C065E6C1010E94EF036F89B5
:1011F000788DC1010E94C50336C08EE4C82E81E0FF
:10120000D82E9EE1E92E91E0F92E00E210E0188E32
:101210001F8AA5019401D6019E918E917E916E91B7
:101220006D010E94DB1818168CF0F70124893589AE
:1012300046895789C501B4010E9441194B015C01DF
:101240008F89988D800F911F988F8F8B159507959B
:1012500094E0E91AF108A6E3CA16A1E0DA06C9F695
:10126000DD24DA9486CE6C960FB6F894DEBF0FBEFE
:10127000CDBFDF91CF911F910F91FF90EF90DF9045
:10128000CF90BF90AF909F908F907F906F905F9026
:101290004F903F902F900895CF92DF92EF92FF9260
:1012A0000F931F93CF93DF936115710511F480E0C5
:1012B00075C06A017B018C01DC011296CD91DC9135
:1012C0001397209709F443C06A817B8161157105EA
:1012D00029F0C7010E94601D892B51F00990D88127
:1012E000C02DEFCFD183C083209709F3FB82EA8220
:1012F000D6018D919C911197892B09F1F80180817C
:10130000918114960D911C9115970F5F1F4FDC0171
:10131000ED91FC910190F081E02DB80109957C01DF
:10132000009729F2F60160817181A8010E944C1D8D
:1013300082E090E09D838C83FF82EE8206C082E093
:1013400090E09D838C831F821E8281E027C0D8019C
:101350008D919C91009781F0DC01ED91FC910190C1
:10136000F081E02D6AE070E00995EC01892B21F015
:10137000198218821D821C82D8011296ED91FC916F
:101380001397309739F080819181009709F4AACFA3
:10139000FC01F9CFF801D383C283A6CFDF91CF91AF
:1013A0001F910F91FF90EF90DF90CF900895CF9312
:1013B000DF93EC0161E089810E940B0B1882DF91C1
:1013C000CF910895CF93DF93EC0160E089810E9473
:1013D0000B0B81E08883DF91CF910895CF92DF924C
:1013E000EF92FF92CF93DF93B091FA03882311F02D
:1013F000AB2F01C0A0E08091FB0390E0880F991F04
:1014000080579E4FC0900004D0900104E0900204E9
:10141000F090030420E030E0FC01C591D491E88114
:10142000EB23A90160E070E0EA130CC02F5F3F4F8F
:101430004C155D056E057F0578F33FEF2FEF8FEFBD
:101440009FEF03C0322F252FCB01632F722FDF9127
:10145000CF91FF90EF90DF90CF9008953FB7F89431
:101460008091520390915303A0915403B09155037E
:1014700026B5A89B05C02F3F19F00196A11DB11DEF
:101480003FBFBA2FA92F982F8827820F911DA11D2A
:10149000B11DBC01CD0142E0660F771F881F991F67
:1014A0004A95D1F708958F929F92AF92BF92CF92B3
:1014B000DF92EF92FF926B017C010E942E0A4B019A
:1014C0005C01C114D104E104F104F1F00E942E0A80
:1014D000DC01CB0188199909AA09BB09883E934010
:1014E000A105B10570F321E0C21AD108E108F108A5
:1014F00088EE880E83E0981EA11CB11CC114D10493
:10150000E104F10419F7DDCFFF90EF90DF90CF9069
:10151000BF90AF909F908F9008950F931F93CF939C
:10152000DF93CDB7DEB762970FB6F894DEBF0FBE7C
:10153000CDBF8C01CB01F80111821082138212827F
:10154000158214824AE0BE016F5F7F4F0E945F16D2
:10155000BE016F5F7F4FC8010E947A0462960FB68A
:10156000F894DEBF0FBECDBFDF91CF911F910F91D9
:10157000089542E050E06EE872E086E593E00C9456
:101580001201CF93DF93009779F0FC0101900020C6
:10159000E9F73197AF01481B590BBC0186E593E091
:1015A0000E941201EC0102C0C0E0D0E00E94B90A22
:1015B0008C0F9D1FDF91CF910895FB0144815581D0
:1015C000FC01248135812417350778F080819181D1
:1015D000009759F0FB01608171816115710529F057
:1015E0000E94701D21E0892B09F020E0822F0895D0
:1015F000CF93DF93FC01448155816081718186E541
:1016000093E00E941201EC010E94B90A8C0F9D1F09
:10161000DF91CF91089590E0FC01E458FE4F2491B2
:10162000FC01E854FE4F3491FC01EC55FE4FE4916F
:10163000EE2309F43CC0222339F1233091F038F431
:101640002130A9F0223001F584B58F7D12C02730FA
:1016500091F02830A1F02430B9F4809180008F7D82
:1016600003C0809180008F77809380000DC084B587
:101670008F7784BD09C08091B0008F7703C08091BF
:10168000B0008F7D8093B000F0E0EE0FFF1FE656B4
:10169000FE4FA591B4919FB7F894611104C08C914D
:1016A0003095382302C0EC913E2B3C939FBF0895A8
:1016B000CF93DF9390E0FC01E854FE4F2491FC01AE
:1016C000EC55FE4F8491882361F190E0880F991FBB
:1016D000FC01EE58FE4FC591D491FC01E656FE4F39
:1016E000A591B491611109C09FB7F89488812095A4
:1016F00082238883EC912E230BC0623061F49FB764
:10170000F8948881322F309583238883EC912E2B97
:101710002C939FBF06C08FB7F894E8812E2B2883A7
:101720008FBFDF91CF9108958E3008F08E50877073
:10173000806480937C0080917A00806480937A003A
:1017400080917A0086FDFCCF80917800209179000D
:1017500090E0922B08952FB7F89460914E0370910A
:101760004F0380915003909151032FBF0895CF9262
:10177000DF92EF92FF920F931F93CF93DF93CDB73A
:10178000DEB7C054D1400FB6F894DEBF0FBECDBF58
:101790000E94AB0B0091FC031091FD032091FE030E
:1017A0003091FF036B017C01C01AD10AE20AF30AEF
:1017B00040EDC41647E0D406E104F10418F480912A
:1017C0000404CAC06093FC037093FD038093FE037E
:1017D0009093FF031092F7031092F6031092F50313
:1017E0001092F4031092F30362E08091F8030E94D8
:1017F000580B61E070E080E090E00E94530A61E0E5
:101800008091F8030E94580B60E08091F8030E94D9
:101810000B0B8091F9038551823028F48BE291E122
:101820000197F1F706C064E170E080E090E00E946B
:10183000530A62E08091F8030E94580B80910504DE
:1018400090E08230910538F0880F991F880F991F1A
:1018500005970197F1F7F89480E00E94EE096F3F39
:101860007F4F8F4F9F4F21F410920404789441C012
:1018700081E00E94EE096F3F7F4F8F4F9F4FA1F392
:101880008E010F5F1F4F6E012FEBC21A2EEFD20A8F
:10189000780180E00E94EE09F70160837183828302
:1018A000938381E00E94EE09F70164837583868348
:1018B0009783F8E0EF0EF11CEC14FD0451F77894D7
:1018C00020E030E0F801C080D180E280F3804481E4
:1018D000558166817781FFEFCF16DF06EF06FF06A1
:1018E00031F04F3F8FEF58076807780721F41092C7
:1018F000040480E031C0F90183E0F595E7958A950D
:10190000E1F7ED50FC4F8081880FC416D506E6063E
:10191000F70608F4816080832F5F3F4F085F1F4FF9
:101920002832310579F62091F70330E04091F30336
:101930008091F40390E0840F911D4091F503840F92
:10194000911D4091F603840F911D9927281739079F
:1019500071F681E080930404C05CDE4F0FB6F8940A
:10196000DEBF0FBECDBFDF91CF911F910F91FF90D2
:10197000EF90DF90CF9008950F931F930E94AB0BD1
:101980006093230470932404809325049093260489
:101990008BE194E00E949F0297FF1FC00E94AB0B57
:1019A00000912304109124042091250430912604F1
:1019B000DC01CB01801B910BA20BB30B00911F0428
:1019C0001091200420912104309122048017910766
:1019D000A207B307E8F28FEF9FEF1F910F910895D1
:1019E0001F920F920FB60F9211242F933F938F9354
:1019F0009F93AF93BF9380914E0390914F03A0911B
:101A00005003B091510330917A0523E0230F2D3715
:101A100020F40196A11DB11D05C026E8230F0296F2
:101A2000A11DB11D20937A0580934E0390934F031F
:101A3000A0935003B09351038091520390915303AC
:101A4000A0915403B09155030196A11DB11D80933F
:101A5000520390935303A0935403B0935503BF9143
:101A6000AF919F918F913F912F910F900FBE0F904B
:101A70001F901895CF93DF93CDB7DEB7C154D1092E
:101A80000FB6F894DEBF0FBECDBF789484B58260E8
:101A900084BD84B5816084BD85B5826085BD85B512
:101AA000816085BD80916E00816080936E00109290
:101AB000810080918100826080938100809181000B
:101AC000816080938100809180008160809380009C
:101AD0008091B10084608093B1008091B0008160FA
:101AE0008093B00080917A00846080937A00809126
:101AF0007A00826080937A0080917A00816080937E
:101B00007A0080917A00806880937A001092C100F8
:101B100061E085E00E94580B61E0809110040E9412
:101B2000580B61E080910D040E94580B61E0809198
:101B30000A040E94580B61E0809107040E94580B30
:101B400060E08EE00E94580B60E08FE00E94580B2E
:101B500060E080E10E94580B60E081E10E94580B38
:101B600061E085E00E940B0B8FE094E00E94D709B2
:101B70008CE094E00E94D70989E094E00E94D709A4
:101B800086E094E00E94D709E0916603F091670334
:101B900082E08083E0916203F09163031082E09120
:101BA0006403F09165038FEC808310926E03E091E3
:101BB0006A03F0916B0386E08083E0916803F09103
:101BC0006903808180618083E0916803F0916903FB
:101BD000808188608083E0916803F091690380814F
:101BE00080688083E0916803F091690380818F7D34
:101BF00080831092360410923504109234041092AF
:101C0000330410923204109231048DE991E09093E4
:101C100038048093370490912704963108F058C017
:101C20002DEB30E030933204209331042BE931E086
:101C300030933404209333042CE231E030933604A3
:101C40002093350440916800983058F031E09E3080
:101C500008F430E021E0822F01C0880F3A95EAF7BE
:101C600001C084E0842B80936800983038F09E3067
:101C700040F0963148F42CE630E008C02DE630E024
:101C800005C02BE630E002C020E030E030932F04A6
:101C900020932E04983030F481E001C0880F9A958B
:101CA000EAF70EC0292F30E09E3018F42850310991
:101CB00002C02E50310981E001C0880F2A95EAF751
:101CC0008093300480913704909138040197F1F7A4
:101CD0008091350490913604892B49F1E09194026A
:101CE000F091950224E0EB31F20709F1309739F0D9
:101CF000A389B4899C918589809589238C9380914F
:101D000039048E7F809339041092930210929202CC
:101D10008BE194E09093950280939402E0912E04DD
:101D2000F0912F04908180913004892B808362E0B0
:101D30008091F8030E94580B0E94AB0BDC01CB0191
:101D4000805D9740A109B1098093FC039093FD0346
:101D5000A093FE03B093FF0387E3809305047E0105
:101D600082E2E80EF11C2AE3222E24E0322E3AED24
:101D7000432E3DEF532E66246A94762C8BE194E03B
:101D80000E948702892B09F4A3C16DE672E0CE019F
:101D900088960E9496040E94BC0C97FD0FC08A3062
:101DA000910561F089831A8241E050E0BE016F5FC6
:101DB0007F4FCE0188960E946703EDCF60E971E006
:101DC000CE0101960E9496044CA55DA568A579A553
:101DD000CE0101960E946703811104C0CE010196D5
:101DE0000E944704CE0101960E94F80ACE01019696
:101DF0000E94910466E971E0CE0101960E9496046A
:101E0000BE016F5F7F4FCE0188960E94DD0A182FBA
:101E1000CE0101960E949104112309F455C1ACA48E
:101E2000BDA4A114B10461F008A519A565E270E094
:101E3000C8010E94551D009719F0801B910B02C02C
:101E40008FEF9FEF6C01EFEFCE1ADE0AAC14BD04EA
:101E500028F09A2D8B2D5601C92ED82E6DE672E0F2
:101E6000C7010E9496040CA51DA5A016B106B8F4E2
:101E7000C016D10608F48601E8A5F9A5E00FF11F08
:101E8000D080108268A579A56A0D7B1DC7010E94CC
:101E90007A0488A599A5FC01E00FF11FD08260EBC0
:101EA00071E0CE0101960E9496040EA11FA10115BA
:101EB000110561F0CAA0DBA069817A81C6010E9488
:101EC0007E1D009719F08C199D0902C08FEF9FEFBE
:101ED00001968017910750F42AA13BA121153105E5
:101EE00029F0F901E80FF91F008101C000E0CE01DF
:101EF00001960E949104602F86E593E00E94A5015F
:101F00000E94B90A68E971E0CE0101960E94960428
:101F1000BE016F5F7F4FC7010E94DD0A182FCE01FF
:101F200001960E949104112399F0003351F001337E
:101F300009F0C7C061E085E00E940B0B85EA91E0E3
:101F4000BEC060E085E00E940B0B8BE991E0B7C05A
:101F50006EEA71E0CE0101960E949604BE016F5FA9
:101F60007F4FC7010E94DD0A882329F01091A20249
:101F700081E0182701C010E0CE0101960E94910473
:101F8000112359F0003331F0013309F09AC08FE08A
:101F900094E06FC08FE094E067C069EC71E0CE011F
:101FA00001960E949604BE016F5F7F4FC7010E9499
:101FB000DD0A882321F01091A20281E01827CE01CA
:101FC00001960E949104112359F0003331F001333E
:101FD00009F077C08CE094E04CC08CE094E044C001
:101FE0006DEC71E0CE0101960E949604BE016F5F18
:101FF0007F4FC7010E94DD0A882321F01091A202C1
:1020000081E01827CE0101960E949104112359F016
:10201000003331F0013309F054C089E094E029C065
:1020200089E094E021C061ED71E0CE0101960E944B
:102030009604BE016F5F7F4FC7010E94DD0A8823AF
:1020400021F01091A20281E01827CE0101960E9492
:102050009104112399F0003329F0013391F586E0C2
:1020600094E007C086E094E00E94D70982EB91E0FB
:1020700026C00E94E2098EEB91E021C065ED71E07F
:10208000CE0101960E949604BE016F5F7F4FC7018B
:102090000E94DD0A182FCE0101960E94910411239F
:1020A00081F0003341F0013361F481E08093A202BA
:1020B00080EF91E004C01092A20289ED91E00E94AD
:1020C000C10AC7010E949104CE0188960E94910422
:1020D00080911A04811109C081E080931A040E9442
:1020E000AB0B70931304609312040E94AB0B7093BC
:1020F0001704609316042091120430911304621B9C
:10210000730B8091140490911504681779070CF4EF
:10211000EEC110921A04109213041092120410923D
:10212000170410921604109241041092400464E0C7
:1021300070E08AE394E00E941F03009709F4DAC17B
:10214000FC0131822082138212826C010E94B70B43
:10215000882309F41DC28091F9038C3009F4F6C17B
:1021600008F0DCC18B3009F013C26091F50370E018
:1021700080E090E00E94E0184B015C011091F603B2
:1021800017FF0AC09B01AC0160E070E080E89FEBA4
:102190000E94911A4B015C01612F6F7070E080E02A
:1021A00090E00E94E2182DEC3CEC4CEC5DE30E94C8
:1021B0004119A50194010E94921A1BA21AA21DA204
:1021C0001CA21FA21EA28E010F5F1F4F22E044E03F
:1021D0000E941816BC01C7010E947A04A70165E09D
:1021E00072E0C6010E944C09C7010E9491048EE072
:1021F0000E94940B092E000CAA0BBB0B9C01AD0195
:102200002652324041095109A4E6B0E00E941E1A4C
:10221000A30192010E94FF19B901CE01CA960E9442
:102220008D0AAE01465C5F4F67E072E0C6010E9416
:102230004C098FE00E94940B092E000CAA0BBB0BDB
:102240009C01AD012652324041095109A4E6B0E09B
:102250000E941E1AA30192010E94FF19B901CE012A
:10226000C4960E948D0AAE014C5C5F4F6AE072E03A
:10227000C6010E944C0980E10E94940B092E000CBB
:10228000AA0BBB0B9C01AD012652324041095109FA
:10229000A4E6B0E00E941E1AA30192010E94FF1959
:1022A000B901CE018E960E948D0AAE01425D5F4F4C
:1022B0006DE072E0C6010E944C0981E10E94940B1E
:1022C000092E000CAA0BBB0B9C01AD01265232401B
:1022D00041095109A4E6B0E00E941E1AA30192012F
:1022E0000E94FF19B901CE0188960E948D0AAE01A5
:1022F000485D5F4F60E172E0C6010E944C09809129
:10230000A20281114AC10E94B70B882309F489C235
:102310008091F9038B3008F484C28D3008F06CC2D0
:102320006091F40370E080E090E00E94E2182DECF0
:102330003CEC4CEC5DE30E9441194B015C01609167
:10234000F30370E080E090E00E94E2189B01AC0192
:10235000C501B4010E94921A1BA21AA21DA21CA2BE
:102360001FA21EA28E010F5F1F4F22E044E00E94B9
:102370001816BC01C7010E947A04A70163E172E04C
:10238000C6010E944C09C7010E94910460910F048C
:1023900070E0C8010E948D0AA80166E172E0C601E2
:1023A0000E944C09C8010E94910460910C0470E0E5
:1023B000C8010E948D0AA8016AE172E0C6010E946C
:1023C0004C09C8010E9491046091090470E0C801A1
:1023D0000E948D0AA8016EE172E0C6010E944C09BC
:1023E000C8010E9491046091060470E0C8010E9437
:1023F0008D0AA80162E272E0C6010E944C09C80180
:102400000E9491046091A20270E0C8010E948D0AAE
:10241000A80166E272E0C6010E944C09C8010E9450
:1024200091046DE672E0C7010E9496042296FFAE09
:10243000EEAE229780E490E08C0F9D1F9A838983F3
:102440001C821B82B801C6010E94A7061A8219824B
:102450001C821B821E821D826AA17BA161157105EF
:1024600029F04EA15FA1C8010E94590441E050E04B
:1024700069E272E0CE0101960E946703882309F4A5
:1024800093C269817A816115710509F4CFC14D81CB
:102490005E81C7010E945904CE0101960E949104F9
:1024A0004EA15FA16AA17BA18BE194E00E94120181
:1024B000C7010E94F80A81E080931A040E94AB0BC6
:1024C0007093130460931204C7010E949104CE011B
:1024D00088960E949104CE018E960E949104CE01AE
:1024E000C4960E949104CE01CA960E9491040E9453
:1024F000140244CC80919A0281110BC01092970271
:1025000010929602109299021092980281E08093A4
:102510009A0296E9C92E92E0D92E18CE85518230C2
:10252000B8F51091F503612F6F7770E0762F66276D
:102530008091F603682B80E090E00E94E0182DEC7B
:102540003CEC4CEC5DE30E9441191EC01091F50378
:102550006091F6036F7070E080E090E00E94E218F6
:102560002DEC3CEC4CEC5DE30E9441194B015C010D
:10257000612F70E080E090E00E94E0189B01AC01C8
:10258000C501B4010E94921A17FF17CE905815CEBC
:1025900060E070E080EC9FE710CECE01CA960E940A
:1025A0005C036E3171058105910554F4CE01C4962A
:1025B0000E945C036E317105810591050CF43AC1EE
:1025C000CE01C4960E945C036E31710581059105B0
:1025D00054F4CE018E960E945C036E317105810524
:1025E00091050CF43CC1CE018E960E945C036E31C5
:1025F00071058105910554F4CE0188960E945C0313
:102600006E317105810591050CF43EC1CE018896AD
:102610000E945C036E3171058105910554F4CE0171
:10262000CA960E945C036E317105810591050CF418
:1026300040C1CE01CA960E945C036E3171058105CE
:10264000910554F4CE018E960E945C036E317105A3
:10265000810591050CF442C1CE01C4960E945C0331
:102660006E3171058105910554F4CE0188960E9462
:102670005C036E317105810591050CF42FC1CE010B
:10268000CA960E945C036E31710581059105E4F4E0
:10269000CE018E960E945C036F3171058105910514
:1026A0009CF0CE01C4960E945C036F3171058105D8
:1026B000910554F0CE0188960E945C036F3171053C
:1026C000810591050CF01BC1CE01CA960E945C03E6
:1026D0006F31710581059105E4F0CE018E960E945F
:1026E0005C036E317105810591059CF4CE01C496A1
:1026F0000E945C036F3171058105910554F0CE0194
:1027000088960E945C036F317105810591050CF07C
:1027100007C1CE01CA960E945C036F317105810525
:102720009105E4F0CE018E960E945C036F31710535
:10273000810591059CF0CE01C4960E945C036E3128
:1027400071058105910554F4CE0188960E945C03C1
:102750006F317105810591050CF0F3C0CE01CA9669
:102760000E945C036F31710581059105E4F0CE0193
:102770008E960E945C036F317105810591059CF076
:10278000CE01C4960E945C036F31710581059105ED
:1027900054F0CE0188960E945C036E31710581056C
:1027A00091050CF4DFC0CE01CA960E945C036E3125
:1027B0007105810591050CF4A6CDCE01C4960E9449
:1027C0005C036E317105810591050CF49CCDCE0141
:1027D0008E960E945C036E317105810591050CF4A3
:1027E00092CDCE0188960E945C036E317105810501
:1027F00091050CF0C8C087CD8551823090F460916E
:10280000F3037091F40376276727762780E090E042
:102810000E94E0182DEC3CEC4CEC5DE30E94411969
:102820009BCD60E070E080EC9FE796CDC7010E94F1
:10283000470432CE8FE094E00E94E2098CE094E0FD
:102840000E94D70989E094E00E94D70986E094E0CD
:102850000E94D7098BE292E00E94C10AB1CE8FE0BC
:1028600094E00E94D7098CE094E00E94E20989E09C
:1028700094E00E94D70986E094E00E94D70988E39B
:1028800092E00E94C10AAFCE8FE094E00E94D70987
:102890008CE094E00E94D70989E094E00E94E2096C
:1028A00086E094E00E94D70985E492E00E94C10A84
:1028B000ADCE8FE094E00E94D7098CE094E00E94B6
:1028C000D70989E094E00E94D70986E094E00E944D
:1028D000E20982E592E00E94C10AABCE8FE094E06B
:1028E0000E94E2098CE094E00E94E20989E094E011
:1028F0000E94E20986E094E00E94E209C0CE8FE0E7
:1029000094E00E94E2098CE094E00E94D70989E0FB
:1029100094E00E94D70986E094E00E94E209D4CEB8
:102920008FE094E00E94D7098CE094E00E94E209D5
:1029300089E094E00E94E20986E094E00E94D709D1
:10294000E8CE8FE094E00E94E2098CE094E00E94DF
:10295000E20989E094E00E94D70986E094E00E94B1
:10296000D709FCCE8FE094E00E94D7098CE094E078
:102970000E94D70989E094E00E94E20986E094E091
:102980000E94E20910CF8FE094E00E94D7098CE00A
:1029900094E00E94D70989E094E00E94D70986E07C
:1029A00094E00E94D709AFCCCE0101960E94470463
:1029B00068CD86E791E090931C0480931B0480917E
:1029C0009402909195028B51944071F4E0912E0401
:1029D000F0912F0490818091300480958923808329
:1029E0001092950210929402089510925903109239
:1029F000580388EE93E0A0E0B0E080935A039093F0
:102A00005B03A0935C03B0935D0322E531E0309358
:102A100057032093560325EC30E030936303209353
:102A2000620324EC30E0309365032093640320ECD0
:102A300030E0309367032093660321EC30E030935D
:102A400069032093680322EC30E030936B032093FA
:102A50006A0326EC30E030936D0320936C031092F0
:102A60006F03109270031092710310927203109210
:102A70007105109270058093720590937305A09371
:102A80007405B093750524E631E030936F0520930B
:102A90006E0522E434E030933D0420933C042CE2A4
:102AA00031E030933F0420933E0410924104109291
:102AB000400428E831E030933B0420933A0410921C
:102AC0001E0410921D0480931F0490932004A09371
:102AD0002104B093220486E791E090931C04809334
:102AE0001B0410923204109231041092340410929C
:102AF0003304109236041092350410923804109268
:102B00003704609139046E7F6D7F60933904669558
:102B1000617081E0682783E00E940B0B61E083E035
:102B20000E94580BEBEBF1E0E491E0932B04E7EA11
:102B3000F1E0E491F0E0EE0FFF1FE656FE4F8591C5
:102B4000949190932D0480932C0460E082E00E9485
:102B5000580B8091390481FD04C061E082E00E943D
:102B60000B0B82E080932704EAEBF1E0E491E09321
:102B70002804E6EAF1E0E491F0E0EE0FFF1FE057F1
:102B8000FE4F8591949190932A048093290410928A
:102B900013041092120484EF91E090931504809333
:102BA0001404109217041092160410921904109233
:102BB000180410921A0486E090E090931104809318
:102BC000100410920F0487E090E090930E0480931D
:102BD0000D0410920C0488E090E090930B04809315
:102BE0000A041092090489E090E09093080480930D
:102BF0000704109206048AE08093F8038BE0809328
:102C0000F903E2ECF1E0E491E093FA03EEEAF1E09B
:102C1000E491E093FB0380E89EE3A0E0B0E08093C2
:102C2000000490930104A0930204B0930304089558
:102C3000EF920F931F93CF93DF93E80147FD02C0FC
:102C400034E001C034E1042E000C550B57FF03C0E3
:102C5000519541955109E32E022F242FAE010E9478
:102C60009916CE01DF91CF911F910F91EF900895AA
:102C70001F93FC0199278827BC01E8941191103219
:102C8000E9F3193010F01E30C8F31B3251F01D3239
:102C900049F4689406C00E946A16610F711D811D77
:102CA000911D119110531A30B0F33EF49095809518
:102CB000709561957F4F8F4F9F4F1F910895BB2750
:102CC0004A3031F4992322F4BDE2909581959F4FCB
:102CD0000C948016592F482F372F262F660F771FF9
:102CE000881F991F660F771F881F991F620F731F18
:102CF000841F951F660F771F881F991F0895BB2794
:102D0000FB015527AA27880F991FAA1FA41710F0A7
:102D1000A41B83955051B9F7A05DAA3308F0A95DB3
:102D2000A193009779F7B111B1931192CB010C9453
:102D3000CB18A9E0B0E0EFE9F6E10C942F1A6A0194
:102D4000122FB02E2BE3201720F0FF24F394F00E67
:102D500002C02CE3F22E0F2D27E0AE014F5F5F4F34
:102D60000E94F317BC014981842F8970813031F0B2
:102D7000E1FC06C0E0FE06C090E205C09DE203C093
:102D80009BE201C090E05E2D507143FF3CC0911169
:102D900002C083E001C084E0811718F4212F281BB2
:102DA00001C020E051110BC0F601822F30E28823D0
:102DB00019F031938150FBCFC20ED11C20E0992332
:102DC00029F0D6019C93F60131966F01C601039656
:102DD000E2FE0AC03EE4D6013C9341E411964C93D6
:102DE000119712963C9306C03EE6F601308341E609
:102DF00041833283FC01322F40E2332309F442C085
:102E000041933150FACF42FF44C0911102C083E098
:102E100001C084E0811718F4212F281B01C020E095
:102E200051110BC0F601822F30E2882319F0319343
:102E30008150FBCFC20ED11C20E0992329F0D6018E
:102E40009C93F60131966F01C6010396E2FE0BC01A
:102E500039E4D6013C933EE411963C93119736E455
:102E600012963C9307C039E6F60130833EE6318383
:102E700036E63283FC01322F40E2332319F04193CE
:102E80003150FBCFFC01E20FF11D10828EEF9FEF5E
:102E9000A6C021E030E0911102C020E030E016161B
:102EA00017061CF4FB01319602C0E1E0F0E02E0FA2
:102EB0003F1FBB2021F0EB2DF0E0319602C0E0E097
:102EC000F0E02E0F3F1FE12FF0E02E173F071CF41C
:102ED000121B212F01C020E08E2D887159F4F601BC
:102EE000822F30E2882319F031938150FBCFC20E3C
:102EF000D11C20E0992329F0D6019C93F60131964C
:102F00006F0151110BC0F601822F90E3882319F055
:102F100091938150FBCFC20ED11C20E00F2D060FE4
:102F20009A81342F307144FF03C0913309F401506A
:102F3000101624F4093018F008E001C001E0AB01DC
:102F400077FF02C040E050E0FB01E41BF50BA1E07D
:102F5000B0E0AC0FBD1FEA0FFB1F8EE2A82E4B01A5
:102F6000801A91080B2D10E01195019511094F3F22
:102F7000BFEF5B0721F4D601AC9211966D01641787
:102F800075072CF08416950614F4818101C080E346
:102F9000415051093196D60111967D0140175107D4
:102FA00024F0D6018C936701E2CF6417750739F4DA
:102FB000963320F4953319F4311101C081E3F60101
:102FC0008083F701822F90E2882319F0919381503A
:102FD000FBCFF701E20FF11D108280E090E029960F
:102FE000ECE00C944B1A283008F027E03327DA0184
:102FF000990F311D87FD916000966105710539F4C7
:1030000032602E5F3D9330E32A95E1F708959F3FAC
:1030100030F080387105610509F03C5F3C5F3D93FD
:10302000913008F08068911DDF93CF931F930F9329
:10303000FF92EF92192F987F9695E92F9695969586
:10304000E90FFF27EE52FF4F99273327EE24FF2485
:10305000A701E70105900894079428F4360FE71EAE
:10306000F81E491F511D660F771F881F991F069470
:10307000A1F70590079428F4E70EF81E491F561F84
:10308000C11D770F881F991F661F0694A1F7059031
:10309000079428F4F80E491F561FC71FD11D880F2B
:1030A000991F661F771F0694A1F70590079420F4D7
:1030B000490F561FC71FD81F990F661F771F881FFC
:1030C0000694A9F784911095177041F0D695C7958D
:1030D00057954795F794E7941A95C1F7E8E7F0E01C
:1030E00068941590159135916591959105907FE2C1
:1030F0007395E118F10A430B560BC90BD009C0F7C1
:10310000E10CF11E431F561FC91FD01D7EF4703302
:1031100011F48A95E6CFE894015030F0080F0AF4D4
:103120000027021708F4202F2395022F7A3328F066
:1031300079E37D932A95E9F710C07D932A9589F666
:10314000069497956795379517951794E118F10AA6
:10315000430B560BC90BD00998F023957E917395BC
:103160007A3308F070E37C932013B8F77E91706196
:103170007D9330F0839571E37D9370E32A95E1F7B9
:103180001124EF90FF900F911F91CF91DF9199271C
:1031900087FD90950895DC01FC01672F71917723DD
:1031A000E1F7329704C07C916D9370836291AE1702
:1031B000BF07C8F308950E941D1908F481E008951F
:1031C000E89409C097FB3EF49095809570956195C1
:1031D0007F4F8F4F9F4F9923A9F0F92F96E9BB2777
:1031E0009395F695879577956795B795F111F8CFF3
:1031F000FAF4BB0F11F460FF1BC06F5F7F4F8F4F5E
:103200009F4F16C0882311F096E911C0772321F053
:103210009EE8872F762F05C0662371F096E8862FEB
:1032200070E060E02AF09A95660F771F881FDAF742
:10323000880F9695879597F90895990F0008550F6F
:10324000AA0BE0E8FEEF16161706E807F907C0F02C
:1032500012161306E407F50798F0621B730B840B34
:10326000950B39F40A2661F0232B242B252B21F40E
:1032700008950A2609F4A140A6958FEF811D811DAE
:1032800008950E9454190C94C5190E94B71938F07A
:103290000E94BE1920F0952311F00C94AE190C94E5
:1032A000B41911240C94F9190E94D61970F3959F42
:1032B000C1F3950F50E0551F629FF001729FBB272D
:1032C000F00DB11D639FAA27F00DB11DAA1F649FC9
:1032D0006627B00DA11D661F829F2227B00DA11D7C
:1032E000621F739FB00DA11D621F839FA00D611D02
:1032F000221F749F3327A00D611D231F849F600D23
:10330000211D822F762F6A2F11249F5750409AF04B
:10331000F1F088234AF0EE0FFF1FBB1F661F771FD7
:10332000881F91505040A9F79E3F510580F00C94A2
:10333000AE190C94F9195F3FE4F3983ED4F38695E7
:1033400077956795B795F795E7959F5FC1F7FE2B42
:10335000880F911D9695879597F9089597F99F671E
:1033600080E870E060E008959FEF80EC089500240D
:103370000A941616170618060906089500240A94DA
:1033800012161306140605060895092E0394000C60
:1033900011F4882352F0BB0F40F4BF2B11F460FFEF
:1033A00004C06F5F7F4F8F4F9F4F089557FD905818
:1033B000440F551F59F05F3F71F04795880F97FBF9
:1033C000991F61F09F3F79F08795089512161306B3
:1033D0001406551FF2CF4695F1DF08C016161706E2
:1033E0001806991FF1CF8695710561050894089517
:1033F000E894BB2766277727CB0197F90895052E18
:1034000097FB1EF400940E94161A57FD07D00E94E5
:10341000601A07FC03D04EF40C94161A5095409590
:10342000309521953F4F4F4F5F4F08959095809570
:10343000709561957F4F8F4F9F4F08950E94821A1C
:10344000A59F900DB49F900DA49F800D911D1124F8
:1034500008952F923F924F925F926F927F928F9238
:103460009F92AF92BF92CF92DF92EF92FF920F9313
:103470001F93CF93DF93CDB7DEB7CA1BDB0B0FB61D
:10348000F894DEBF0FBECDBF09942A8839884888DA
:103490005F846E847D848C849B84AA84B984C88470
:1034A000DF80EE80FD800C811B81AA81B981CE0F67
:1034B000D11D0FB6F894DEBF0FBECDBFED0108954C
:1034C000A1E21A2EAA1BBB1BFD010DC0AA1FBB1F28
:1034D000EE1FFF1FA217B307E407F50720F0A21B9A
:1034E000B30BE40BF50B661F771F881F991F1A9407
:1034F00069F760957095809590959B01AC01BD0131
:10350000CF010895A29FB001B39FC001A39F700D8A
:10351000811D1124911DB29F700D811D1124911DDB
:1035200008955058BB27AA270E94A91A0C94C519C0
:103530000E94B71938F00E94BE1920F039F49F3F5D
:1035400019F426F40C94B4190EF4E095E7FB0C94EE
:10355000AE19E92F0E94D61958F3BA1762077307FC
:103560008407950720F079F4A6F50C94F8190EF469
:10357000E0950B2EBA2FA02D0B01B90190010C0183
:10358000CA01A0011124FF27591B99F0593F50F49B
:10359000503E68F11A16F040A22F232F342F4427F3
:1035A000585FF3CF469537952795A795F0405395EB
:1035B000C9F77EF41F16BA0B620B730B840BBAF0BB
:1035C0009150A1F0FF0FBB1F661F771F881FC2F726
:1035D0000EC0BA0F621F731F841F48F4879577953A
:1035E0006795B795F7959E3F08F0B0CF9395880FF4
:1035F00008F09927EE0F9795879508950E94DE1998
:1036000088F09F5798F0B92F9927B751B0F0E1F0A3
:10361000660F771F881F991F1AF0BA95C9F714C053
:10362000B13091F00E94F819B1E008950C94F819A6
:10363000672F782F8827B85F39F0B93FCCF386958C
:1036400077956795B395D9F73EF4909580957095E9
:1036500061957F4F8F4F9F4F08950E941D1908F469
:103660008FEF089597FB072E16F4009407D077FD8F
:1036700009D00E944C1B07FC05D03EF49095819523
:103680009F4F0895709561957F4F0895EE0FFF1F2E
:103690000590F491E02D0994AA1BBB1B51E107C0D2
:1036A000AA1FBB1FA617B70710F0A61BB70B881FD2
:1036B000991F5A95A9F780959095BC01CD01089561
:1036C0000F931F93CF93DF938230910510F482E024
:1036D00090E0E0917D05F0917E0520E030E0A0E0F3
:1036E000B0E0309719F14081518102811381481770
:1036F0005907C8F08417950769F4109731F01296AE
:103700000C93129713961C9327C000937D0510937A
:103710007E0522C02115310519F04217530718F410
:103720009A01BD01EF01DF01F801DBCF2115310561
:10373000F9F0281B390B2430310580F48A819B81F4
:103740006115710521F0FB019383828304C090937E
:103750007E0580937D05FE01329644C0FE01E20F96
:10376000F31F8193919322503109398328833AC002
:1037700020917B0530917C05232B41F4209102019F
:103780003091030130937C0520937B05209100014B
:10379000309101012115310541F42DB73EB740911B
:1037A000040150910501241B350BE0917B05F0913C
:1037B0007C05E217F307A0F42E1B3F0B28173907EF
:1037C00078F0AC014E5F5F4F2417350748F04E0F7D
:1037D0005F1F50937C0540937B058193919302C0BA
:1037E000E0E0F0E0CF01DF91CF911F910F910895BC
:1037F000CF93DF93009709F481C0FC0132971382C5
:103800001282A0917D05B0917E05109781F42081F0
:103810003181820F931F20917B0530917C05281701
:10382000390751F5F0937C05E0937B0567C0ED0106
:1038300020E030E0CE17DF0740F44A815B819E0133
:1038400041155105F1F0EA01F5CFD383C2834081E0
:103850005181840F951FC817D90759F48881998120
:10386000840F951F0296918380838A819B81938325
:1038700082832115310529F4F0937E05E0937D05BF
:103880003DC0E901FB83EA8349915991C40FD51FDB
:10389000EC17FD0761F480819181840F951F0296DA
:1038A000E90199838883828193819B838A83E0E005
:1038B000F0E012968D919C911397009719F0FD01FD
:1038C000DC01F7CF8D919C9111979D012E5F3F4FA9
:1038D000820F931F20917B0530917C0528173907B3
:1038E00069F4309729F410927E0510927D0502C08C
:1038F00013821282B0937C05A0937B05DF91CF9158
:103900000895A0E0B0E0E7E8FCE10C942D1AEC018A
:10391000009721F4CB010E94601BB4C0FC01E60FAC
:10392000F71F9C0122503109E217F30708F4A8C0E1
:10393000D9010D911C91119706171707B0F00530AA
:10394000110508F49BC0C80104978617970708F46F
:1039500095C002501109061B170B019311936D932B
:103960007C93CF010E94F81B89C05B01A01AB10AA9
:103970004C01800E911EA0917D05B0917E05612CB9
:10398000712CE12CF12C109709F446C08D919C917B
:103990001197A815B905B1F56C0142E0C40ED11C10
:1039A000CA14DB0478F14C018A189B08640142E0D8
:1039B000C40ED11C1296BC9012971396AC91B5E030
:1039C000CB16D10440F0B282A38391828082D901C8
:1039D0006D937C9309C00E5F1F4F800F911FF901FB
:1039E00091838083EB2DFA2FE114F10431F0D7019C
:1039F0001396FC93EE93129741C0F0937E05E093EB
:103A00007D053CC06816790608F43C017D011296DC
:103A10000D90BC91A02DB7CF80917B0590917C0536
:103A200088169906E1F466167706C8F480910001BD
:103A300090910101009741F48DB79EB74091040128
:103A400050910501841B950BE817F907C8F4F09312
:103A50007C05E0937B05F901718360830FC0CB0186
:103A60000E94601B7C01009759F0A801BE010E94D2
:103A70004C1DCE010E94F81BC70104C0CE0102C03C
:103A800080E090E0CDB7DEB7EEE00C94491A81E01B
:103A900090E0F8940C94981DFB01DC0102C00190A9
:103AA0000D9241505040D8F70895FC01819186173E
:103AB00021F08823D9F7992708953197CF010895E8
:103AC000FB01DC018D91019080190110D9F3990B54
:103AD0000895FB01DC0101900D920020E1F70895AB
:103AE000FB01DC014150504030F08D910190801974
:103AF00019F40020B9F7881B990B0895FB01519127
:103B00005523A9F0BF01DC014D9145174111E1F7A3
:103B100059F4CD010190002049F04D91401541111B
:103B2000C9F3FB014111EFCF81E090E001970895C7
:103B300010E0C7EED0E004C0FE010E94461B2196B3
:0A3B4000C83ED107C9F7F894FFCF83
:103B4A0000007F0580000000803FCDCCCC3D6F1285
:103B5A00833A95BFD6337D1D9026B3CE010CCDCCCA
:103B6A00CC3D0AD7233C17B7D13877CC2B32959561
:103B7A00E6241FB14F0A000020410000C84200405D
:103B8A001C4620BCBE4CCA1B0E5AAEC59D74000012
:103B9A000000A50112013C01F2016D014B015F0118
:103BAA00000000000E030303CE023602C602C3025F
:103BBA00C0020000000037021201CE02360287025C
:103BCA009F021E02000000001F03000000003303D2
:103BDA006573703A200025006C3D006C6564204FC7
:103BEA0066662E2E006C6564204F6E2E2E006D3197
:103BFA003D004D6F746F72206F66662E2E004D6FFA
:103C0A00746F72204F6E2E2E006D323D006D333D63
:103C1A00006D343D006D6F3D006175746F6D6174A8
:103C2A006963206D6F646520756E7365742E2E004E
:103C3A006175746F6D61746963206D6F646520735B
:103C4A0065742E2E0074006D31006D32006D3300E4
:103C5A006D3400686D00733173007332730073330F
:103C6A007300733473006D640023006D6F746F7298
:103C7A002031204F4E2E2E006D6F746F722032202D
:103C8A004F4E2E2E006D6F746F722033204F4E2EC2
:103C9A002E006D6F746F722034204F4E2E2E00222C
:103CAA00225C5C6208660C6E0A720D7409006E75FD
:103CBA006C6C00747275650066616C7365004E61A8
:103CCA004E00652D00496E66696E697479000D0AA9
:023CDA000000E8
:00000001FF
